:100000000C9450010C9481010C9481010C94810199
:100010000C9481010C9481010C9481010C94810158
:100020000C9481010C9481010C9481010C94810148
:100030000C9481010C9481010C9481010C94810138
:100040000C9481010C94200A0C9481010C94810180
:100050000C9481010C9481010C9481010C948C0806
:100060000C9481010C9460090C9436090C94810164
:100070000C9481010C9481010C9481010C948101F8
:100080000C94F2090C9481010C9481010C9481016F
:100090000C9400090C94D6080C9481010C948101F5
:1000A0000C9481010C9481010C94C4090C9481017D
:1000B0000C9481010C9481010C9481010C9496099B
:1000C0000C9481010C9481010C9481010C948101A8
:1000D0000C9481010C9481010C9481010C94810198
:1000E0000C9481010C94BD030C94C1030C94B303D4
:1000F0000C94D7050C94A5040C944E0A0C9491030F
:100100000C9491040C946B030C94C8050C946E042D
:100110000C9487040C9436040C948A030C94AF045A
:100120000C94A5030C947D040C94EB050C948203B1
:100130000C9488060C9422040C9415040C945A0414
:100140000C9486030C94A1030C94AF030C949B04B1
:100150000C941D040C949B050C9470030C94970351
:100160000C948E030C94F9050C9440040C944804F0
:100170000C949B030C94A9030C943B060C942C0444
:100180000C9450040C9464040C94B7030A0B0C0DEB
:100190000E0F00010203040500000A0B02090C0DFA
:1001A0000E0807030401000000000000000000002A
:1001B000000000000000000000000000000000003F
:1001C00000000000121110000000000000000000FC
:1001D000000000000000000000000000000000001F
:1001E0002200250028002B002E00310034000201DF
:1001F0000000050108010B01000021002400270078
:100200002A002D0030003300010100000401070125
:100210000A0105050505070508080808020202028B
:100220000A0A080804040404010101010101010192
:100230000303030303030303040707070C0C0C0C5D
:100240000C0C0C0C02020202060606060606060646
:100250000B0B0B0B0B0B0B0B0102102020080810D3
:100260002040102040800201020108040201010226
:1002700004081020408080402010080402018004FF
:10028000020180402010080402010804020101025A
:1002900004081020408001020408102040804E0A0B
:1002A00011241FBECFEFD1E2DEBFCDBF00E00CBFF7
:1002B00012E0A0E0B2E0E6EBF6E200E00BBF02C025
:1002C00007900D92A234B107D9F724E0A2E4B2E07E
:1002D00001C01D92AE39B207E1F711E0C0E5D1E0EF
:1002E00000E006C021970109802FFE010E944813FB
:1002F000CF34D10780E00807A9F70E94000C0C94C6
:1003000059130C94000090E0FC01E85AFD4F249131
:100310008E5E9D4FFC018491882399F090E0880FB8
:10032000991FFC01E850FE4FA591B491FC01E252E7
:10033000FE4F859194918FB7F894EC91E22BEC935A
:100340008FBF0895FC01A089B18982E08C93A485B8
:10035000B5851C92A685B7858FEC8C93108EA489E9
:10036000B58986E08C93A289B3898C9180618C9346
:10037000A289B3898C9188608C93A289B3898C916E
:1003800080688C930288F389E02D80818F7D808343
:100390000895CF92DF92EF92FF92DC01A03282E0CB
:1003A000B807D4F5A53BB10514F0A4EBB0E040913B
:1003B000700428E830E0241B310947FD3395220FF3
:1003C000331F220F331F6901330FEE08FF084091DE
:1003D000710428E532E0241B310947FD3395220FD3
:1003E000331F220F331F032E000C440B550B2C1907
:1003F0003D094E095F09B7FF02C0B0E0A0E00E94CE
:10040000AB1124EB30E040E050E00E948111C20EBD
:10041000D31EE41EF51ED601E0916F04E03380F593
:100420002091700488E890E0821B910927FD939544
:10043000880F991F880F991FA817B90784F020917A
:10044000710488E592E0821B910927FD9395880F3E
:10045000991F880F991FA817B9070CF4CD010297AF
:10046000880F991F4FB7F8942E2F30E0F901EE0F47
:10047000FF1FE20FF31FE754FC4F928381834FBFAE
:10048000FF90EF90DF90CF9008958F929F92AF9260
:10049000BF92CF92DF92EF92FF928091710458E564
:1004A000C52E52E0D52EC81AD10887FDD394CC0CA6
:1004B000DD1CCC0CDD1C0D2C000CEE08FF0880911F
:1004C000700478E8872E912C881A910887FD939400
:1004D000880C991C880C991C092C000CAA08BB08D4
:1004E00080916F048F3FD1F190E0FC01EE0FFF1F70
:1004F000E80FF91FE754FC4F8181928133E0880FA8
:10050000991F3A95E1F7B0E0A0E044E0B595A795D2
:10051000979587954A95D1F702969C012F5F3F4F9B
:10052000032E000C440B550B281939094A095B09A5
:10053000A4EBB0E00E94A011A70196012819390987
:100540004A095B090E948111C901FF90EF90DF9079
:10055000CF90BF90AF909F908F90089590E080E0F3
:10056000DCCF9FB7F894A0E5B2E05E96ED91FC91E8
:100570005F9780815D962C91822B80839FBF089529
:100580008F929F92AF92BF92CF92DF92EF92FF92A3
:100590000F931F93CF93DF93D0E0C0E0D12C082FAF
:1005A000880F110B8BE0E82EF12C812C912C54013B
:1005B0008394CC2EC8010C2E02C0959587950A9481
:1005C000E2F780FF4AC00E94B1028FB7F894E09131
:1005D0006B02F0916C02208190916A0290959223B7
:1005E00090838FBFC7010197F1F7E0917402F091FA
:1005F0007502808190917302892351F0D501C40165
:1006000004C0880F991FAA1FBB1FCA94D2F7D82A0B
:100610009FB7F894E0916B02F0916C028081209179
:100620006A02822B80839FBF2196C830D10509F0D2
:10063000C0CF0E94B10287E090E00197F1F78D2DC5
:10064000DF91CF911F910F91FF90EF90DF90CF90AE
:10065000BF90AF909F908F9008959FB7F894E091CE
:100660006E02F0916F02208180916D02809582234D
:1006700080839FBFAACF282F30E0F901E856FE4FB4
:100680009491F901E85AFD4F44912E5E3D4FF901D6
:100690002491222309F435C0992311F1915092310C
:1006A000F8F4E92FF0E08827E75AFC4F8F4F0C94BD
:1006B00048138A038E036B0382038603700391033E
:1006C00097039B03A103A503A903AF03B30370031F
:1006D000B703BD03C103809180008F7780938000B2
:1006E000E22FF0E0EE0FFF1FE252FE4FA591B49112
:1006F0008FB7F894EC91611148C040954E234C930C
:100700008FBF0895809180008F7DE8CF8091800019
:10071000877FE4CF84B58F7784BDE2CF84B58F7DAA
:10072000FBCF8091B0008F778093B000D9CF8091BC
:10073000B0008F7DF9CF809190008F7780939000EB
:10074000CFCF809190008F7DF9CF80919000877FEF
:10075000F5CF8091A0008F778093A000C1CF8091CA
:10076000A0008F7DF9CF8091A000877FF5CF809189
:1007700020018F7780932001B3CF809120018F7D5E
:10078000F9CF80912001877FF5CF4E2BB8CF682F0E
:1007900080914E040E943B03809165049091660411
:1007A0008230910538F0880F991F880F991F05979F
:1007B0000197F1F7089581E00C94C7031F93CF933D
:1007C000DF93182FEB010E948301209739F460E03A
:1007D000812FDF91CF911F910C943B03CF3FD10527
:1007E00011F461E0F5CFE12FF0E0E856FE4FE4911F
:1007F000E150E23108F0B3C0F0E08827ED5FFB4F35
:100800008F4F0C94481315041D0422042C04360445
:10081000AF044004480450045A0464046E047D0488
:100820008704AF0491049B04A50484B5806884BD4B
:10083000C7BDDF91CF911F91089584B5806284BDBB
:10084000C8BDF7CF80918000806880938000D093EE
:100850008900C0938800EDCF8091800080628093F2
:100860008000D0938B00C0938A00E3CF80918000FA
:10087000886080938000D0938D00C0938C00D9CF86
:100880008091B00080688093B000C093B300D1CF56
:100890008091B00080628093B000C093B400C9CF53
:1008A00080919000806880939000D0939900C093CD
:1008B0009800BFCF80919000806280939000D09389
:1008C0009B00C0939A00B5CF809190008860809380
:1008D0009000D0939D00C0939C00ABCF8091A0006E
:1008E00080688093A0008091A0008F7B8093A000FF
:1008F000D093A900C093A8009CCF8091A0008062F3
:100900008093A000D093AB00C093AA0092CF8091B7
:10091000A00088608093A000D093AD00C093AC008D
:1009200088CF80912001806880932001D093290195
:10093000C09328017ECF80912001806280932001A6
:10094000D0932B01C0932A0174CF8091200188603D
:1009500080932001D0932D01C0932C016ACFC03821
:10096000D1050CF03ECF33CF0F931F93CF93C92FF8
:100970008B01682F792F77FF03C0719561957109FD
:10098000809196040E94DE03B80117FF04C0662719
:100990007727601B710B80919A040E94DE036C2FF5
:1009A0006095661F6627661F809198040E943B032E
:1009B00061E0101611060CF460E080919C04CF9168
:1009C0001F910F910C943B033FB7F89480914C0218
:1009D00090914D02A0914E02B0914F0226B5A89B76
:1009E00005C02F3F19F00196A11DB11D3FBFBA2FC1
:1009F000A92F982F8827BC01CD01620F711D811D81
:100A0000911D42E0660F771F881F991F4A95D1F705
:100A100008958F929F92AF92BF92CF92DF92EF9202
:100A2000FF926B017C010E94E4044B015C01C11444
:100A3000D104E104F104B9F00E94E40468197909D1
:100A40008A099B09683E73408105910580F321E086
:100A5000C21AD108E108F10888EE880E83E0981EDA
:100A6000A11CB11CE4CFFF90EF90DF90CF90BF901E
:100A7000AF909F908F900895EF92FF920F931F93E6
:100A8000CF93DF937C019FB7F894E0917102F091CE
:100A900072022081809170028095822380839FBFA3
:100AA00087E090E00197F1F7E701062F10E0CE0113
:100AB0008E199F098017910724F489910E94C00222
:100AC000F6CF9FB7F894E0917102F09172028081A5
:100AD00020917002822B80839FBF60917A0270E028
:100AE00090E080E0DF91CF911F910F91FF90EF9008
:100AF0000C94090565E081E292E00E943C0569E002
:100B000088E192E00E943C0580917C02882329F0D4
:100B100065E083E192E00E943C0580917D0288239C
:100B200029F069E08AE092E00E943C0569E081E0FA
:100B300092E00C943C05AF92BF92CF92DF92EF927D
:100B4000FF920F931F93CF93DF936C017B018B0177
:100B5000040F151FEB015E01AE18BF08C017D107C7
:100B600059F06991D601ED91FC910190F081E02D51
:100B7000C6011995892B79F7C501DF91CF911F9196
:100B80000F91FF90EF90DF90CF90BF90AF900895BE
:100B9000FC01538D448D252F30E0842F90E0821B83
:100BA000930B541710F0CF96089501970895FC0108
:100BB000918D828D981761F0A28DAE0FBF2FB11D60
:100BC0005D968C91928D9F5F9F73928F90E00895B8
:100BD0008FEF9FEF0895FC01918D828D981731F072
:100BE000828DE80FF11D858D90E008958FEF9FEFC6
:100BF0000895FC01918D228D892F90E0805C9F4F9C
:100C0000821B91098F73992708958EE792E00E94C5
:100C1000F90521E0892B09F420E0822F08958BE16A
:100C200093E00E94F90521E0892B09F420E0822F4E
:100C30000895FC01A48DA80FB92FB11DA35ABF4F71
:100C40002C91848D90E001968F739927848FA689CB
:100C5000B7892C93A089B1898C91837080648C931F
:100C6000938D848D981306C00288F389E02D8081CE
:100C70008F7D80830895EF92FF920F931F93CF9300
:100C8000DF93EC0181E0888F9B8D8C8D98131AC0C7
:100C9000E889F989808185FF15C09FB7F894EE89AE
:100CA000FF896083E889F98980818370806480830B
:100CB0009FBF81E090E0DF91CF911F910F91FF9056
:100CC000EF900895F62E0B8D10E00F5F1F4F0F73FE
:100CD0001127E02E8C8D8E110CC00FB607FCFACFB9
:100CE000E889F989808185FFF5CFCE010E94190638
:100CF000F1CFEB8DEC0FFD2FF11DE35AFF4FF0828A
:100D00009FB7F8940B8FEA89FB8980818062CFCFEF
:100D1000CF93DF93EC01888D8823B9F0AA89BB8932
:100D2000E889F9898C9185FD03C0808186FD0DC01D
:100D30000FB607FCF7CF8C9185FFF2CF808185FF3E
:100D4000EDCFCE010E941906E9CFDF91CF91089532
:100D500080E090E0892B29F00E940F0681110E940B
:100D6000000080E090E0892B29F00E9405068111A7
:100D70000E94000080E090E0892B49F080E090E044
:100D8000892B29F00E94000081110E94000080E060
:100D900090E0892B49F080E090E0892B29F00E94B7
:100DA000000081110C94000008958EBD00000DB468
:100DB00007FEFDCF8EB50895AF92BF92CF92DF921E
:100DC000EF92FF920F931F93CF93DF936B017A0102
:100DD000EC01CE5BDD4F28813CE0389F8001399FDC
:100DE000100D1124A0904904B12C27FF1FC0FB0156
:100DF0001182108288818F5F888388819801280FF3
:100E0000311D87FD3A95F6012A153B051CF48881B2
:100E10008C30C4F180819181049680349C4908F41F
:100E200073C0F60180819181049670C08881980119
:100E3000280F311D87FD3A952A153B05DCF6888180
:100E4000A801480F511D87FD5A95FA01EE0FFF1FAB
:100E5000E40FF51FE754FC4F808186FFCBCF8881DC
:100E6000F801E80FF11D87FDFA95CF01EE0FFF1F86
:100E7000E80FF91FE754FC4F808160E08F730E94F8
:100E80003B03B8CF808191812881A801420F511D79
:100E900027FD5A959A01FA01EE0FFF1FE20FF31F8B
:100EA000E754FC4F21813281820F931FF701918318
:100EB000808388819801280F311D87FD3A95F901BB
:100EC000EE0FFF1FE20FF31FE754FC4F808186FFF8
:100ED00022C08881080F111D87FD1A95F801EE0FB9
:100EE000FF1FE00FF11FE754FC4F808161E08F731B
:100EF000DF91CF911F910F91FF90EF90DF90CF90F6
:100F0000BF90AF900C943B0380E49CE9F701918380
:100F100080838FEF8883DF91CF911F910F91FF9096
:100F2000EF90DF90CF90BF90AF9008950F931F93F5
:100F300000915004109151042091520430915304B7
:100F400040E052E16AE770E080E0041715072607E9
:100F5000370740F476956795579547958F5F8630AC
:100F6000A1F787E0982F906A9695809581709CBD37
:100F70008DBD80E01F910F910C94C703CF93C82FB4
:100F80000E9496078C2F80620E94D506809354049D
:100F9000CF910C94DB03CF93C82F0E9496078C2F20
:100FA0000E94D506809354048FEF0E94D506C82F67
:100FB0000E94DB038C2FCF910895FF920F931F9314
:100FC000CF93DF93C82FF62E072F142F0E9496077A
:100FD0008C2F80620E94D50680935404CF2DD02F91
:100FE000115020F089910E94D506FACFDF91CF9160
:100FF0001F910F91FF900C94DB030E94960780E5F0
:101000000E94D5068093540483E70E94D5060C9471
:10101000DB03CF93DF93D82FC62F0E9496078D2F27
:1010200080620E94D506809354048C2F0E94D506BE
:10103000DF91CF910C94DB0360915E0461FD0AC0E7
:10104000626060935E0480E00E9409088BE19EE488
:101050000197F1F70895FC0101900020E9F731971D
:10106000AF01481B590BBC018BE193E00C949B052D
:101070008F929F92AF92BF920F931F93CF93DF9364
:10108000CDB7DEB7A1970FB6F894DEBF0FBECDBFC8
:1010900019A2423008F44AE08E010F5D1F4F842EE2
:1010A000912CB12CA12CA50194010E94B311E62F23
:1010B000B901CA01EA30F4F4E05DD801EE938D0184
:1010C000232B242B252B79F790E080E0109719F043
:1010D000CD010E942B08A1960FB6F894DEBF0FBE7B
:1010E000CDBFDF91CF911F910F91BF90AF909F9097
:1010F0008F900895E95CE1CFCF93DF9380E492E095
:101100000E942B08EC018EE392E00E942B088C0FCA
:101110009D1FDF91CF9108951F920F920FB60F92EE
:1011200011242F933F938F939F93AF93BF938091FD
:10113000480290914902A0914A02B0914B0230912D
:10114000470223E0230F2D3758F50196A11DB11D4D
:10115000209347028093480290934902A0934A0249
:10116000B0934B0280914C0290914D02A0914E029F
:10117000B0914F020196A11DB11D80934C02909336
:101180004D02A0934E02B0934F02BF91AF919F9139
:101190008F913F912F910F900FBE0F901F90189538
:1011A00026E8230F0296A11DB11DD2CF1F920F92E8
:1011B0000FB60F9211240BB60F922F933F934F93BC
:1011C0005F936F937F938F939F93AF93BF93EF93AF
:1011D000FF938EE792E00E941906FF91EF91BF9175
:1011E000AF919F918F917F916F915F914F913F91BF
:1011F0002F910F900BBE0F900FBE0F901F90189560
:101200001F920F920FB60F9211240BB60F922F93CD
:101210008F939F93EF93FF93E0918E02F0918F0253
:101220008081E0919402F091950282FD1DC0908131
:10123000809197028F5F8F7320919802821741F0FF
:10124000E0919702F0E0E258FD4F958F809397026E
:10125000FF91EF919F918F912F910F900BBE0F9067
:101260000FBE0F901F9018958081F2CF1F920F92A2
:101270000FB60F9211240BB60F922F933F934F93FB
:101280005F936F937F938F939F93AF93BF93EF93EE
:10129000FF938BE193E00E941906FF91EF91BF91BC
:1012A000AF919F918F917F916F915F914F913F91FE
:1012B0002F910F900BBE0F900FBE0F901F9018959F
:1012C0001F920F920FB60F9211240BB60F922F930D
:1012D0008F939F93EF93FF93E0912B03F0912C0357
:1012E0008081E0913103F091320382FD1DC0908135
:1012F000809134038F5F8F7320913503821741F003
:10130000E0913403F0E0E55EFC4F958F8093340369
:10131000FF91EF919F918F912F910F900BBE0F90A6
:101320000FBE0F901F9018958081F2CF1F920F92E1
:101330000FB60F9211240BB60F922F933F934F933A
:101340005F936F937F938F939F93AF93BF93EF932D
:10135000FF9348E251E064E271E090E080E00E9497
:10136000DC06FF91EF91BF91AF919F918F917F919B
:101370006F915F914F913F912F910F900BBE0F9006
:101380000FBE0F901F9018951F920F920FB60F92DD
:1013900011240BB60F922F933F934F935F936F934C
:1013A0007F938F939F93AF93BF93EF93FF9348EAFD
:1013B00050E064EA70E083E090E00E94DC06FF9178
:1013C000EF91BF91AF919F918F917F916F915F91BD
:1013D0004F913F912F910F900BBE0F900FBE0F902A
:1013E0001F9018951F920F920FB60F9211240BB6F3
:1013F0000F922F933F934F935F936F937F938F93AE
:101400009F93AF93BF93EF93FF9348E950E064E954
:1014100070E082E090E00E94DC06FF91EF91BF91C6
:10142000AF919F918F917F916F915F914F913F917C
:101430002F910F900BBE0F900FBE0F901F9018951D
:101440001F920F920FB60F9211240BB60F922F938B
:101450003F934F935F936F937F938F939F93AF933C
:10146000BF93EF93FF9348E850E064E870E081E0B9
:1014700090E00E94DC06FF91EF91BF91AF919F91A8
:101480008F917F916F915F914F913F912F910F902D
:101490000BBE0F900FBE0F901F90189510928102F7
:1014A0001092800248EE53E060E070E040938202C8
:1014B00050938302609384027093850280E392E0EC
:1014C00090937F0280937E022DEC30E030938B026C
:1014D00020938A022CEC30E030938D0220938C0212
:1014E00028EC30E030938F0220938E0229EC30E01C
:1014F00030939102209390022AEC30E030939302D3
:10150000209392022EEC30E03093950220939402C7
:1015100010929702109298021092990210929A02D9
:1015200010921E0310921D0340931F03509320033B
:10153000609321037093220390931C0380931B03F9
:1015400085EC90E0909328038093270384EC90E04F
:1015500090932A038093290380EC90E090932C03CE
:1015600080932B0381EC90E090932E0380932D03C6
:1015700082EC90E09093300380932F0386EC90E010
:101580009093320380933103109234031092350309
:10159000109236031092370382E00E94830184E3A5
:1015A0000E94830183E00E94830185E30E948301FE
:1015B00082E090E0909397048093960484E390E017
:1015C000909399048093980483E090E090939B0417
:1015D00080939A0485E390E090939D0480939C040B
:1015E00088E10E94830189E10E94830185E00E94D5
:1015F00083018CE10E9483018EE10E94830186E0D9
:101600000E9483018CE20E9483018DE20E9483018B
:101610008EE20E9483018FE20E94830188E190E0C4
:10162000909383048093820489E190E090938504F1
:101630008093840485E090E09093870480938604EF
:101640008CE190E090938904809388048EE190E08F
:1016500090938B0480938A0486E090E090938D04AD
:1016600080938C048CE290E090938F0480938E049E
:101670008DE290E090939104809390048EE290E04C
:1016800090939304809392048FE290E0909395045A
:101690008093940482E20E94830183E20E9483018A
:1016A00086E20E94830187E20E94830189E00E9412
:1016B000830188E20E94830189E20E9483018AE01B
:1016C0000E94830182E290E09093730480937204FD
:1016D00083E290E0909375048093740486E290E036
:1016E000909377048093760487E290E09093790456
:1016F0008093780489E090E090937B0480937A044F
:1017000088E290E090937D0480937C0489E290E0ED
:1017100090937F0480937E048AE090E0909381040C
:101720008093800480914904803308F065C091E083
:10173000980F9093490480936F0490E0FC01EE0FA2
:10174000FF1FE80FF91FE754FC4F88EB9BE09283E3
:1017500081838DE10E9483018FE10E94830187E0F4
:101760000E9483018DE190E090936A048093690464
:101770008FE190E090936C0480936B0487E090E09D
:1017800090936E0480936D048AE290E090934D04F0
:1017900080934C048BE290E090934F0480934E042E
:1017A00080E896E9A8E9B0E0809350049093510452
:1017B000A0935204B093530480E28093550481E0D7
:1017C0008093560485E080935D0410925F0485E069
:1017D00090E0A0E0B0E08093650490936604A0934D
:1017E0006704B093680488EB93E090934B04809374
:1017F0004A041092580408958FEF80936F04A9CF84
:10180000CF93DF93CDB7DEB72F970FB6F894DEBF37
:101810000FBECDBF789484B5826084BD84B58160ED
:1018200084BD85B5826085BD85B5816085BD8091AB
:101830006E00816080936E00109281008091810023
:10184000826080938100809181008160809381001B
:10185000809180008160809380008091B1008460DD
:101860008093B1008091B00081608093B00080913E
:1018700091008260809391008091910081608093BB
:101880009100809190008160809390008091A100F0
:1018900082608093A1008091A10081608093A1006B
:1018A0008091A00081608093A000809121018260DE
:1018B0008093210180912101816080932101809199
:1018C000200181608093200180917A008460809360
:1018D0007A0080917A00826080937A0080917A0009
:1018E000816080937A0080917A00806880937A008A
:1018F0001092C1008BE193E00E94A20180916F04DD
:10190000803308F051C088E00E94830180916F0409
:10191000282F30E0F901EE0FFF1FE20FF31FE7540D
:10192000FC4F9081907C986090831092700410928C
:1019300071042CE0622F0E943C13829FB00111249D
:1019400030E020E0AB01420F531FFA01EE0FFF1F02
:10195000E40FF51FE754FC4F908196FD17C02F5FF1
:101960003F4F2C30310571F7813009F08AC2109257
:10197000800082E0809381001092850010928400A4
:10198000B19A80916F00826080936F00E0916F0444
:101990008E2F90E0FC01EE0FFF1FE80FF91FE754B8
:1019A000FC4F80818064808390E080E00E94C901C8
:1019B0001FB7F89480914602811124C0E7E4F2E059
:1019C0008491EDE8F2E09491E82FF0E0EE0FFF1F34
:1019D000E850FE4FA591B491EC91E92321F461E028
:1019E00085E30E943B0385E30E9483018CB58061FF
:1019F0008CBD8CB580648CBD84E30E94830183E33D
:101A00000E948301809146028F5F809346021FBF30
:101A100080914C0490914D048F3F980709F496C033
:101A200020914E0430914F042F3F320709F48EC0AD
:101A30008217930731F00E94830180914E040E9427
:101A4000830180914C0490914D0420914E0430917B
:101A50004F048217930719F060E00E943B0381E076
:101A60000E94C70365E070E080E090E00E940905F5
:101A70006FE584E00E94090886E00E94CB0745E5F7
:101A800050E060E070E04093610450936204609322
:101A9000630470936404682F677D86E00E940908E0
:101AA00086E00E94CB078DE10E94CB07182F0E9491
:101AB000FD078DE10E94CB0791E0181390E0909311
:101AC0005F04882341F0181302C00E94FD0760E004
:101AD0008DE10E9409081092570460E08CE10E9499
:101AE0000908109256046FE381E00E94090863E040
:101AF00082E00E94090880E28093550411E1609120
:101B00005504812F0E9409081F5F1731C1F763E058
:101B100083E00E94090885E080935D046CE40E94E4
:101B2000090860E787E00E94090882EE0E94BE076C
:101B300081EE0E94BE076CE080E00E94090880E010
:101B40000E94CB0780935E040E941C0860E085E041
:101B50000E94090886E00E94CB07887F682F636097
:101B600086E00E94090886E00E94CB07877D41E459
:101B700050E060E070E04093610450936204609331
:101B8000630470936404682F686086E00E9409080B
:101B900086E00E94CB071091000211119EC1409176
:101BA0005D0450E066E272E088E594E00E94501324
:101BB000E12FF0E0E457FE4F849140915D0466E22E
:101BC00072E00E94DD0782E00E94CB07E12FF0E087
:101BD000EE56FE4FE49161E070E001C0660FEA95B9
:101BE000EAF7682B82E00E9409080E941C086091B5
:101BF0005E04616060935E0480E00E94090860E713
:101C000087E00E94090880914C0490914D04209136
:101C10004E0430914F048217930719F061E00E943F
:101C20003B0380915804882309F464C140915D040A
:101C300068E574E08AE00E94DD078EE792E00E948A
:101C4000A201CE0103969D878C875E019AE0A90EC2
:101C5000B11C3E01ECE06E0E711C2FB7F894609140
:101C600048027091490280914A0290914B022FBF25
:101C700000917602109177022091780230917902DA
:101C8000601B710B820B930B0E9485126B017C0110
:101C900020E030E84BEB54E40E943713181614F49C
:101CA0000E947A0560917A0270E090E080E00E94E4
:101CB00087121B012C01AC019B01C701B6010E94D8
:101CC000511287FF0AC0A7019601C201B1010E940B
:101CD000E4110E9456120E940905EC85FD8527E05B
:101CE00011922A95E9F741E0498382E48A83B5E0BD
:101CF0005B2E0E94B1029FB7F894E0916B02F091C5
:101D00006C02808120916A02822B80839FBF9FB7E3
:101D1000F894E0917102F09172022081809170023A
:101D20008095822380839FBF87E090E00197F1F741
:101D3000FE0131967F01A0E5CA2EA2E0DA2E8F01C6
:101D4000F70181917F010E94C002F60181936F012A
:101D5000AE14BF04A9F780915102893779F4F9E5EF
:101D6000EF2EF2E0FF2E80E00E94C002F701819387
:101D70007F0185E692E08E179F07A9F79FB7F89439
:101D8000E0917102F0917202808120917002822BA9
:101D900080839FBF80915102807F803761F00E94D5
:101DA0007A0560917A0270E090E080E00E94090577
:101DB0005A9451109ECF80915102807F803739F024
:101DC00080917A028A3018F48F5F80937A02809132
:101DD00068029091690290936702809366028091F5
:101DE00053029091540290936902809368022FB736
:101DF000F8948091480290914902A0914A02B091D2
:101E00004B022FBF8093760290937702A0937802C3
:101E1000B0937902F8012BE011922A95E9F78FEF40
:101E20000E94BE078091540490E095958795877035
:101E3000863008F080C08093000280915604D12C37
:101E40006BE0C62E811109C080915504C82E8C30DC
:101E500010F07BE0C72ED82EDC180E94960781E692
:101E60000E94D506809354047801CA944FEFC4169B
:101E700009F453C08FEF0E94D506F70181937F01CB
:101E8000F4CF823061F41092900080939100109210
:101E900095001092940088BB8093710077CD8330B9
:101EA00069F41092A00082E08093A1001092A50036
:101EB0001092A40089BB8093720068CD811166CD19
:101EC0001092200182E0809321011092250110924E
:101ED00024018ABB8093730059CD163008F085CE5B
:101EE000E12FF0E0E457FE4F113009F461CE849108
:101EF00041E065CE82E00E94CB07E2E9F1E0E491A7
:101F000021E030E001C0220FEA95EAF72095622F28
:101F1000682382E00E94090890CEDA94FFEFDF1672
:101F200021F08FEF0E94D506F8CF0E94DB0360E41A
:101F300087E00E9409088EE792E00E94F905892B4C
:101F400081F078018EE792E00E94F905892B09F46F
:101F500064C08EE792E00E94D705F70181937F016C
:101F6000F1CF60E070E090E080E04AE00E94380845
:101F70008EE392E00E942B088EE392E00E942B08F1
:101F8000F80161918F0170E090E080E04AE00E94EA
:101F900038088EE392E00E942B086016710681F7E4
:101FA0000E947C080E947C080E947C088A856FEF52
:101FB00070E084FD08C061E07FEF86FD34C085FFDE
:101FC0002EC061E07FEF8FEF90E00E94B40480911B
:101FD0006802909169028095909584FD2CC02985B6
:101FE00027FD29C0EE24EA94FE2C86FD08C025FBBF
:101FF000882480F8912CEE24FF24E818F90892FD3B
:102000000FC1298524FD0CC190FD04C010E000E043
:1020100026FF08C101E01FEF05C161E0A3CF87FFE4
:1020200005C06FEF70E081E09FEFCFCF70E060E020
:1020300090E080E0CACFEE24E394F12CE0CF60E0A2
:10204000809190040E943B0360E0809194040E9480
:102050003B0390E080E08E159F050CF0F2C061E03C
:1020600080918E040E943B0361E0809192040E9463
:102070003B0364E670E080E090E00E94090560E0C8
:1020800080918E040E943B0360E0809192040E9444
:102090003B0364E670E080E090E00E94090581E087
:1020A00090E0D9CF119501951109B8010E94DE0386
:1020B00060E0809182040E943B0361E0809184048F
:1020C0000E943B03B80180918C040E94DE0360E013
:1020D000809188040E943B0361E0CFC001E010E0E2
:1020E000E8C0EE24EA94F12C61E0809176040E942D
:1020F0003B0360E0809178040E943B03B70180912C
:102100007A040E94DE0361E080917C040E943B031C
:1021100060E080917E040E943B03B70180918004BF
:102120000E94DE03809174040F3F100709F160E004
:102130000E943B0390E080E08017910794F561E0F6
:10214000809172040E943B0364E670E080E090E0BE
:102150000E94090560E0809172040E943B0364E6DE
:1021600070E080E090E00E94090581E090E0E4CF1B
:1021700061E00E943B0361E0809172040E943B0396
:1021800064E670E080E090E00E94090560E08091E4
:1021900072040E943B0364E670E080E090E00E94DD
:1021A0000905809168029091690220916602309140
:1021B0006702392737FF0DC08095909597FF09C0BA
:1021C0000E944502843B910521F590E080E00E9449
:1021D000C9018F8190E0982F88272885820F911D53
:1021E000009771F044EB489F9001499F300D1124F6
:1021F000832F85958595932F990F990B0E94C9017F
:1022000062E370E080E090E00E9409050E94A80669
:1022100024CD0E944502892BE1F684EB90E0D7CFD4
:102220000FEF10E02FEFE216F20609F008CF61E0A1
:10223000809190040E943B0361E0809194040E948D
:102240003B038091860417FD2DCFB8010E94DE0369
:1022500061E0809182040E943B0360E080918404ED
:102260000E943B03B80180918C040E94DE0361E070
:10227000809188040E943B0360E080918A040E9460
:102280003B0380916802909169028095909594FD3E
:1022900025CF298523FD22CF0FEF1FEF96FD09C023
:1022A000269521702E871F860E851F851195019515
:1022B000110993FD16CF298520FD13CF91FD04C090
:1022C000F12CE12C22FF10CF60E0809176040E9477
:1022D0003B0361E0809178040E943B036FEF70E064
:1022E00080917A040E94DE0360E080917C040E9469
:1022F0003B0361E080917E040E943B036FEF70E03E
:102300000DCF052E97FB1EF400940E94981157FDE7
:1023100007D00E94B31107FC03D04EF40C9498111F
:1023200050954095309521953F4F4F4F5F4F089501
:1023300090958095709561957F4F8F4F9F4F089531
:102340000E94D511A59F900DB49F900DA49F800D64
:10235000911D11240895B7FF0C94A0110E94A011A3
:10236000821B930B0895A1E21A2EAA1BBB1BFD0131
:102370000DC0AA1FBB1FEE1FFF1FA217B307E40764
:10238000F50720F0A21BB30BE40BF50B661F771FBC
:10239000881F991F1A9469F760957095809590959C
:1023A0009B01AC01BD01CF010895A29FB001B39F75
:1023B000C001A39F700D811D1124911DB29F700D4E
:1023C000811D1124911D08955058BB27AA270E94F2
:1023D000FC110C94FD120E94EF1238F00E94F612CC
:1023E00020F039F49F3F19F426F40C94EC120EF40B
:1023F000E095E7FB0C94E612E92F0E940E1358F3C8
:10240000BA17620773078407950720F079F4A6F5D9
:102410000C9430130EF4E0950B2EBA2FA02D0B0167
:10242000B90190010C01CA01A0011124FF27591B19
:1024300099F0593F50F4503E68F11A16F040A22F1F
:10244000232F342F4427585FF3CF46953795279590
:10245000A795F0405395C9F77EF41F16BA0B620B8F
:10246000730B840BBAF09150A1F0FF0FBB1F661FD6
:10247000771F881FC2F70EC0BA0F621F731F841F19
:1024800048F4879577956795B795F7959E3F08F03F
:10249000B0CF9395880F08F09927EE0F9795879501
:1024A00008950E94C21208F481E008950E94161354
:1024B00088F09F5798F0B92F9927B751B0F0E1F005
:1024C000660F771F881F991F1AF0BA95C9F714C0B5
:1024D000B13091F00E943013B1E008950C943013A4
:1024E000672F782F8827B85F39F0B93FCCF38695EE
:1024F00077956795B395D9F73EF49095809570954B
:1025000061957F4F8F4F9F4F0895E89409C097FBC7
:102510003EF490958095709561957F4F8F4F9F4FBA
:102520009923A9F0F92F96E9BB279395F6958795FE
:1025300077956795B795F111F8CFFAF4BB0F11F4C1
:1025400060FF1BC06F5F7F4F8F4F9F4F16C0882368
:1025500011F096E911C0772321F09EE8872F762F9E
:1025600005C0662371F096E8862F70E060E02AF0DF
:102570009A95660F771F881FDAF7880F96958795CB
:1025800097F90895990F0008550FAA0BE0E8FEEFA0
:1025900016161706E807F907C0F012161306E40727
:1025A000F50798F0621B730B840B950B39F40A2620
:1025B00061F0232B242B252B21F408950A2609F4FE
:1025C000A140A6958FEF811D811D089597F99F6702
:1025D00080E870E060E008959FEF80EC08950024AB
:1025E0000A941616170618060906089500240A9478
:1025F00012161306140605060895092E0394000CFE
:1026000011F4882352F0BB0F40F4BF2B11F460FF8C
:1026100004C06F5F7F4F8F4F9F4F089557FD9058B5
:10262000440F551F59F05F3F71F04795880F97FB96
:10263000991F61F09F3F79F0879508951216130650
:102640001406551FF2CF4695F1DF08C0161617067F
:102650001806991FF1CF86957105610508940895B4
:10266000E894BB2766277727CB0197F908950E9446
:10267000C21208F48FEF0895991B79E004C0991FE6
:10268000961708F0961B881F7A95C9F780950895CC
:10269000EE0FFF1F881F8BBF0790F691E02D199456
:1026A000FB01DC0102C001900D9241505040D8F76F
:0626B0000895F894FFCF2D
:1026B60001014300005A5A5A5A5A014F00FFFF03BC
:1026C600000000014D00000101440001030000006C
:1026D600000143000100314E6F64650000000000F8
:1026E6003B069B05C8058806F905D705EB050D0AC7
:0226F6000000E2
:00000001FF
