:100000000C942B010C945C010C945C010C945C012D
:100010000C945C010C945C010C945C010C945C01EC
:100020000C945C010C945C010C945C010C945C01DC
:100030000C945C010C945C010C945C010C945C01CC
:100040000C945C010C945C010C945C010C945C01BC
:100050000C945C010C945C010C945C010C940505FF
:100060000C945C010C94D9050C94AF050C945C01C4
:100070000C945C010C945C010C945C010C945C018C
:100080000C945C010C945C010C945C010C945C017C
:100090000C9479050C944F050C945C010C945C0154
:1000A0000C945C010C945C010C945C010C945C015C
:1000B0000C945C010C945C010C945C010C945C014C
:1000C0000C945C010C945C010C945C010C945C013C
:1000D0000C945C010C945C010C945C010C945C012C
:1000E0000C945C010C9426020C94D9010C94F70139
:1000F0000C940C030C94D4010C941C020C940E026E
:100100000C940F060C944E030C94EA020C9400021B
:100110000C94F3010C9420020C94EB010C94AE02AD
:100120000C949B030C94DB020C94FA010C940A02CD
:100130000C9404020C9412020C9418020C94EF011B
:100140000C942A020C94FE02000102030405000034
:100150000A0B02090C0D0E08070304010000000041
:10016000000000000000000000000000000000008F
:10017000000000000000000000001211100000004C
:10018000000000000000000000000000000000006F
:100190000000000000002200250028002B002E0097
:1001A0003100340002010000050108010B010000CC
:1001B0002100240027002A002D0030003300010117
:1001C0000000040107010A010505050507050808E7
:1001D0000808020202020A0A0808040404040101D1
:1001E00001010101010103030303030303030407E6
:1001F00007070C0C0C0C0C0C0C0C0202020206067D
:100200000606060606060B0B0B0B0B0B0B0B01026F
:100210001020200808102040102040800201020118
:1002200008040201010204081020408080402010D0
:100230000804020180040201804020100804020129
:100240000804020101020408102040800102040891
:10025000102040800F0611241FBECFEFD1E2DEBF79
:10026000CDBF00E00CBF24E0ACE9B2E001C01D92BC
:10027000A030B207E1F712E0A0E0B2E0E2E1F1E184
:1002800000E00BBF02C007900D92AC39B107D9F75F
:1002900011E0CBE2D1E000E006C021970109802FF8
:1002A000FE010E947F08CA32D10780E00807A9F743
:1002B0000E9488060C9487080C940000FC01A08919
:1002C000B18982E08C93A485B5851C92A685B785FB
:1002D0008FEC8C93108EA489B58986E08C93A289CB
:1002E000B3898C9180618C93A289B3898C91886049
:1002F0008C93A289B3898C9180688C930288F3894E
:10030000E02D80818F7D8083089590E0FC01E25F85
:10031000FD4F249188539E4FFC018491882399F0CE
:1003200090E0880F991FFC01E255FE4FA591B49112
:10033000FC01EC56FE4F859194918FB7F894EC91A7
:10034000E22BEC938FBF0895282F30E0F901E25B98
:10035000FE4F9491F901E25FFD4F449128533E4FC7
:10036000F9012491222309F435C0992311F1915008
:100370009231F8F4E92FF0E08827EE53FE4F8F4FCB
:100380000C947F08F301F701D401EB01EF01D901CF
:10039000FA01000204020A020E02120218021C02F2
:1003A000D901200226022A02809180008F77809353
:1003B0008000E22FF0E0EE0FFF1FEC56FE4FA591FC
:1003C000B4918FB7F894EC91611148C040954E23D9
:1003D0004C938FBF0895809180008F7DE8CF8091EE
:1003E0008000877FE4CF84B58F7784BDE2CF84B56A
:1003F0008F7DFBCF8091B0008F778093B000D9CFF5
:100400008091B0008F7DF9CF809190008F7780939D
:100410009000CFCF809190008F7DF9CF8091900098
:10042000877FF5CF8091A0008F778093A000C1CF08
:100430008091A0008F7DF9CF8091A000877FF5CFBC
:10044000809120018F7780932001B3CF809120018C
:100450008F7DF9CF80912001877FF5CF4E2BB8CFCC
:10046000682F8091E5030E94A4018091FC03909184
:10047000FD038230910538F0880F991F880F991F6E
:1004800005970197F1F7089581E00C9430022091CF
:10049000E3033091E4034091E5035091E603241710
:1004A000350721F0682F822F0C94A40108953FB7DF
:1004B000F89480919E0290919F02A091A002B09129
:1004C000A10226B5A89B05C02F3F19F00196A11DDA
:1004D000B11D3FBFBA2FA92F982F8827BC01CD018E
:1004E000620F711D811D911D42E0660F771F881FED
:1004F000991F4A95D1F708958F929F92AF92BF921C
:10050000CF92DF92EF92FF924B015C010E94570263
:100510006B017C010E9457026C197D098E099F09AD
:10052000683E734081059105A8F321E0821A910885
:10053000A108B10888EEC80E83E0D81EE11CF11CAA
:1005400081149104A104B10429F7FF90EF90DF908A
:10055000CF90BF90AF909F908F900895AF92BF9231
:10056000CF92DF92EF92FF920F931F93CF93DF937F
:100570006C017B018B01040F151FEB015E01AE18AE
:10058000BF08C017D10759F06991D601ED91FC91D0
:100590000190F081E02DC6011995892B79F7C501ED
:1005A000DF91CF911F910F91FF90EF90DF90CF904F
:1005B000BF90AF900895FC01538D448D252F30E0FE
:1005C000842F90E0821B930B541710F0CF96089560
:1005D00001970895FC01918D828D981761F0A28D8D
:1005E000AE0FBF2FB11D5D968C91928D9F5F9F7353
:1005F000928F90E008958FEF9FEF0895FC01918D09
:10060000828D981731F0828DE80FF11D858D90E075
:1006100008958FEF9FEF0895FC01918D228D892F12
:1006200090E0805C9F4F821B91098F7399270895FA
:1006300086EA92E00E940C0321E0892B09F420E075
:10064000822F089583E493E00E940C0321E0892B1C
:1006500009F420E0822F0895FC01A48DA80FB92F82
:10066000B11DA35ABF4F2C91848D90E001968F73DA
:100670009927848FA689B7892C93A089B1898C91F9
:10068000837080648C93938D848D981306C0028848
:10069000F389E02D80818F7D80830895EF92FF9212
:1006A0000F931F93CF93DF93EC0181E0888F9B8D95
:1006B0008C8D98131AC0E889F989808185FF15C04F
:1006C0009FB7F894EE89FF896083E889F989808172
:1006D0008370806480839FBF81E090E0DF91CF9141
:1006E0001F910F91FF90EF900895F62E0B8D10E063
:1006F0000F5F1F4F0F731127E02E8C8D8E110CC0D2
:100700000FB607FCFACFE889F989808185FFF5CF1C
:10071000CE010E942C03F1CFEB8DEC0FFD2FF11DCC
:10072000E35AFF4FF0829FB7F8940B8FEA89FB8959
:1007300080818062CFCFCF93DF93EC01888D8823B7
:10074000B9F0AA89BB89E889F9898C9185FD03C034
:10075000808186FD0DC00FB607FCF7CF8C9185FF19
:10076000F2CF808185FFEDCFCE010E942C03E9CF2F
:10077000DF91CF91089580E090E0892B29F00E94CD
:10078000220381110E94000080E090E0892B29F073
:100790000E94180381110E94000080E090E0892BE4
:1007A00049F080E090E0892B29F00E94000081113F
:1007B0000E94000080E090E0892B49F080E090E00A
:1007C000892B29F00E94000081110C9400000895EB
:1007D0008EBD00000DB407FEFDCF8EB508950F93BA
:1007E0001F930091E7031091E8032091E9033091F2
:1007F000EA0340E052E16AE770E080E00417150781
:100800002607370740F476956795579547958F5F8C
:100810008630A1F787E0982F906A96958095817031
:100820009CBD8DBD80E01F910F910C943002CF9341
:10083000C82F0E94EF038C2F80620E94E8038093F0
:10084000EB03CF910C944402CF93C82F0E94EF0387
:100850008C2F0E94E8038093EB038FEF0E94E80344
:10086000C82F0E9444028C2FCF9108950F931F939D
:10087000CF93182FC62F0E94EF03812F80620E9412
:10088000E8038093EB0300E012E0C15030F0F80180
:1008900081918F010E94E803F8CFCF911F910F91B2
:1008A0000C9444020E94EF0380E50E94E8038093C9
:1008B000EB0383E70E94E8030C944402CF93DF9399
:1008C000D82FC62F0E94EF038D2F80620E94E8036D
:1008D0008093EB038C2F0E94E803DF91CF910C945F
:1008E0004402CF92DF92EF92FF920F931F93CF9328
:1008F000DF937C018091ED03C0E0DBE0811107C054
:10090000C091EC03DC2FCC3008F0DBE0CD1B0E9463
:10091000EF0380EA0E94E8038093EB038701D15044
:1009200030F0F80181918F010E94E803F8CFC150A7
:1009300020F080E00E94E803FACF0E94440281E0A8
:100940000E9447028FB7F894C090A202D090A302F1
:10095000E090A402F090A5028FBF8FEF0E941704D1
:100960008091EB03807309F52FB7F8948091A20270
:100970009091A302A091A402B091A5022FBF8C195F
:100980009D09AE09BF0980369105A105B10528F37F
:1009900081E08093F70380E0DF91CF911F910F9169
:1009A000FF90EF90DF90CF90089580E00E94470283
:1009B00060E787E00E945E048091EB0384FF04C03F
:1009C00081EE0E941704E7CF81E0E6CF42E050E0DD
:1009D00068E172E083E493E00C94AE02CF93DF937E
:1009E000FC0101900020E9F73197AF01481B590B3A
:1009F000BC0183E493E00E94AE02EC010E94E60495
:100A00008C0F9D1FDF91CF9108951F920F920FB60B
:100A10000F9211242F933F938F939F93AF93BF9384
:100A20008091A2029091A302A091A402B091A5028C
:100A300030919D0223E0230F2D3758F50196A11D1B
:100A4000B11D20939D028093A2029093A302A093D4
:100A5000A402B093A50280919E0290919F02A09162
:100A6000A002B091A1020196A11DB11D80939E022A
:100A700090939F02A093A002B093A102BF91AF9167
:100A80009F918F913F912F910F900FBE0F901F90CC
:100A9000189526E8230F0296A11DB11DD2CF1F92F3
:100AA0000F920FB60F9211240BB60F922F933F9314
:100AB0004F935F936F937F938F939F93AF93BF9366
:100AC000EF93FF9386EA92E00E942C03FF91EF914F
:100AD000BF91AF919F918F917F916F915F914F9156
:100AE0003F912F910F900BBE0F900FBE0F901F9054
:100AF00018951F920F920FB60F9211240BB60F92FA
:100B00002F938F939F93EF93FF93E091B602F09111
:100B1000B7028081E091BC02F091BD0282FD1DC050
:100B200090818091BF028F5F8F732091C0028217E6
:100B300041F0E091BF02F0E0EA55FD4F958F8093C0
:100B4000BF02FF91EF919F918F912F910F900BBE5C
:100B50000F900FBE0F901F9018958081F2CF1F92BB
:100B60000F920FB60F9211240BB60F922F933F9353
:100B70004F935F936F937F938F939F93AF93BF93A5
:100B8000EF93FF9383E493E00E942C03FF91EF9196
:100B9000BF91AF919F918F917F916F915F914F9195
:100BA0003F912F910F900BBE0F900FBE0F901F9093
:100BB00018951F920F920FB60F9211240BB60F9239
:100BC0002F938F939F93EF93FF93E0915303F091B3
:100BD00054038081E0915903F0915A0382FD1DC0B6
:100BE000908180915C038F5F8F7320915D038217EA
:100BF00041F0E0915C03F0E0ED5BFC4F958F80935A
:100C00005C03FF91EF919F918F912F910F900BBEFD
:100C10000F900FBE0F901F9018958081F2CFE6EADB
:100C2000F2E01382128248EE53E060E070E0448309
:100C30005583668377838AE092E0918380832DECED
:100C400030E0358724872CEC30E03787268728EC86
:100C500030E0318B208B29EC30E0338B228B2AEC77
:100C600030E0358B248B2EEC30E0378B268B118EC9
:100C7000128E138E148EE3E4F3E013821282448307
:100C80005583668377839183808385EC90E0958795
:100C9000848784EC90E09787868780EC90E0918B46
:100CA000808B81EC90E0938B828B82EC90E0958B33
:100CB000848B86EC90E0978B868B118E128E138E30
:100CC000148EE1EEF3E087E190E09383828389E183
:100CD00090E09583848380E896E9A8E9B0E0868374
:100CE0009783A087B18780E2838781E0848785E04E
:100CF000838B158A85E090E0A0E0B0E0838F948F2D
:100D0000A58FB68F80EE93E0918380831686089539
:100D1000CF93DF9300D000D000D01F921F92CDB7A9
:100D2000DEB7789484B5826084BD84B5816084BD6B
:100D300085B5826085BD85B5816085BD80916E0079
:100D4000816080936E0010928100809181008260AA
:100D500080938100809181008160809381008091E7
:100D600080008160809380008091B10084608093D6
:100D7000B1008091B00081608093B00080919100BB
:100D800082608093910080919100816080939100B6
:100D9000809190008160809390008091A10082609A
:100DA0008093A1008091A10081608093A100809137
:100DB000A00081608093A0008091210182608093D7
:100DC0002101809121018160809321018091200186
:100DD00081608093200180917A00846080937A0002
:100DE00080917A00826080937A0080917A0081609D
:100DF00080937A0080917A00806880937A001092C4
:100E0000C1001FB7F89480919C02811124C0EDEFBE
:100E1000F1E08491E3E4F2E09491E82FF0E0EE0F4A
:100E2000FF1FE255FE4FA591B491EC91E92321F407
:100E300061E085E30E94A40185E30E9485018CB5F1
:100E400080618CBD8CB580648CBD84E30E9485017B
:100E500083E30E94850180919C028F5F80939C02B6
:100E60001FBF8091E3039091E4038F3F980709F43B
:100E700096C02091E5033091E6032F3F320709F435
:100E80008EC08217930731F00E9485018091E5039F
:100E90000E94850180E00E94470281E00E943002AA
:100EA00065E070E080E090E00E947C026FE584E005
:100EB0000E945E0486E00E94240445E550E060E064
:100EC00070E04093F8035093F9036093FA03709332
:100ED000FB03682F677D86E00E945E0486E00E9427
:100EE00024048DE10E942404182F0E9452048DE1F5
:100EF0000E94240491E0181390E09093F603882355
:100F000041F0181302C00E94520460E08DE10E947B
:100F10005E041092EE0360E08CE10E945E04109289
:100F2000ED036FE381E00E945E0463E082E00E94D3
:100F30005E0480E28093EC0311E16091EC03812F69
:100F40000E945E041F5F1731C1F763E083E00E94D7
:100F50005E0485E08093F4036CE40E945E0460E725
:100F600087E00E945E0482EE0E94170481EE0E94D8
:100F700017046CE080E00E945E0480E00E9424047C
:100F80008093F50381FD0BC0682F62606093F503C9
:100F900080E00E945E048BE19EE40197F1F786E019
:100FA0000E942404887F682F636086E00E945E04AC
:100FB00086E00E942404877D41E450E060E070E018
:100FC0004093F8035093F9036093FA037093FB0383
:100FD000682F686086E00E945E0486E00E94240418
:100FE0006091F4038AE00E9436046091F40380E18A
:100FF0000E94360480E00E9447028091F80390919D
:10100000F9038230910538F0880F991F880F991FD6
:1010100005970197F1F78091EE03882319F081EE8F
:101020000E9417046091F5036E7F6093F50380E0E2
:101030000E945E0482E00E942404E8E4F1E0E4916E
:1010400061E070E001C0660FEA95EAF7682B82E084
:101050000E945E0483E493E00E945E0186EA92E0CF
:101060000E945E0160E085E00E945E048BE0D82E65
:101070008E010F5F1F4F90E1E92E20E4F22EF80160
:101080002D2D11922A95E9F7EA868BE192E00E94D4
:10109000EE04C8010E94710486E492E00E94EE040E
:1010A0004BE050E0B80186EA92E00E94AE0268EEA2
:1010B00073E080E090E00E947C020E94E604FA86E1
:1010C0008BE192E00E94EE04C8010E94710480E767
:1010D00092E00E94EE044BE050E0B80186EA92E014
:1010E0000E94AE0268EE73E080E090E00E947C0215
:1010F0008AE192E00E94EE040E94BB03C0CFEE0F93
:10110000FF1F881F8BBF0790F691E02D1994F8946C
:02111000FFCF0F
:10111200314E6F646500000000004E03AE02DB0238
:101122009B030C03EA02FE020D0A007472616E73E5
:101132006D697474696E67206261636B7761726452
:10114200207369676E616C207468726F75676820BE
:10115200726164696F007472616E736D697474692F
:101162006E6720666F77617264207369676E616C67
:10117200207468726F7567682073657269616C00AC
:101182007472616E736D697474696E6720626163F3
:101192006B77617264207369676E616C2074687228
:0C11A2006F7567682073657269616C00EE
:00000001FF
