:100000000C944A010C947B010C947B010C947B01B1
:100010000C947B010C947B010C947B010C947B0170
:100020000C947B010C947B010C947B010C947B0160
:100030000C947B010C947B010C947B010C947B0150
:100040000C947B010C947B010C947B010C947B0140
:100050000C947B010C947B010C947B010C9489041F
:100060000C947B010C94FD040C94D3040C947B0140
:100070000C947B010C947B010C947B010C947B0110
:100080000C947B010C947B010C947B010C947B0100
:100090000C947B010C947B010C947B010C947B01F0
:1000A0000C947B010C947B010C947B010C947B01E0
:1000B0000C947B010C947B010C947B010C947B01D0
:1000C0000C947B010C947B010C947B010C947B01C0
:1000D0000C947B010C947B010C947B010C947B01B0
:1000E0000C947B010C94E3010C94D1010C949A02C2
:1000F0000C945F020C94F9020C9438040C94DB020B
:100100000C94EF020C94EB030C94E7010C940A029C
:100110000C9410020C9422020C9402020C94A4027F
:100120000C94B8020C9476020C9406020C94920281
:100130000C941E020C94CC010C9418020C94A50390
:100140000C94C7020C9433050C94EF010C948203B9
:100150000C94E5020C94EB010C94F2010C948A02CD
:100160000C9491030C9480020C946C020C94FC018E
:100170000C94B3030C94AE020C94F8010C9414028A
:100180000C94D1020C9455030C94670200000A0BE6
:1001900002090C0D0E080703040100000000000016
:1001A000000000000000000000000000000000004F
:1001B000000000000000000012111000000000000C
:1001C000000000000000000000000000000000002F
:1001D000000000002200250028002B002E00310026
:1001E000340002010000050108010B01000021009C
:1001F000240027002A002D003000330001010000F8
:10020000040107010A010505050507050808080896
:10021000020202020A0A080804040404010101019E
:100220000101010103030303030303030407070799
:100230000C0C0C0C0C0C0C0C02020202060606063E
:10024000060606060B0B0B0B0B0B0B0B010210200B
:1002500020080810204010204080020102010804FC
:100260000201010204081020408080402010080490
:1002700002018004020180402010080402010804E9
:10028000020101020408102040800102040810202D
:100290004080330511241FBECFEFD1E2DEBFCDBFBA
:1002A00000E00CBF12E0A0E0B2E0ECE5FDE000E011
:1002B0000BBF02C007900D92A231B107D9F722E01F
:1002C000A2E1B2E001C01D92AC3CB207E1F711E03F
:1002D000CAE4D1E000E006C021970109802FFE01A9
:1002E0000E94A406C934D10780E00807A9F70E943C
:1002F000A8050C94AC060C94000090E0FC01E45BB3
:10030000FD4F24918A5F9D4FFC018491882399F0D1
:1003100090E0880F991FFC01E451FE4FA591B49124
:10032000FC01EE52FE4F859194918FB7F894EC91B9
:10033000E22BEC938FBF0895282F30E0F901E457AA
:10034000FE4F9491F901E45BFD4F44912A5F3D4FCC
:10035000F9012491222309F435C0992311F1915018
:100360009231F8F4E92FF0E08827E654FE4F8F4FE2
:100370000C94A406EB01EF01CC01E301E701D101EC
:10038000F201F801FC01020206020A021002140244
:10039000D10118021E022202809180008F77809383
:1003A0008000E22FF0E0EE0FFF1FEE52FE4FA5910E
:1003B000B4918FB7F894EC91611148C040954E23E9
:1003C0004C938FBF0895809180008F7DE8CF8091FE
:1003D0008000877FE4CF84B58F7784BDE2CF84B57A
:1003E0008F7DFBCF8091B0008F778093B000D9CF05
:1003F0008091B0008F7DF9CF809190008F778093AE
:100400009000CFCF809190008F7DF9CF80919000A8
:10041000877FF5CF8091A0008F778093A000C1CF18
:100420008091A0008F7DF9CF8091A000877FF5CFCC
:10043000809120018F7780932001B3CF809120019C
:100440008F7DF9CF80912001877FF5CF4E2BB8CFDC
:100450001F93CF93DF93182FEB010E947D0120970C
:1004600039F460E0812FDF91CF911F910C949C01B2
:10047000CF3FD10511F461E0F5CFE12FF0E0E45773
:10048000FE4FE491E150E23108F0B3C0F0E088277C
:10049000E35BFD4F8F4F0C94A4065F0267026C0272
:1004A00076028002F9028A0292029A02A402AE0245
:1004B000B802C702D102F902DB02E502EF0284B5FD
:1004C000806884BDC7BDDF91CF911F91089584B529
:1004D000806284BDC8BDF7CF809180008068809322
:1004E0008000D0938900C0938800EDCF8091800078
:1004F000806280938000D0938B00C0938A00E3CF0A
:1005000080918000886080938000D0938D00C0939C
:100510008C00D9CF8091B00080688093B000C093E8
:10052000B300D1CF8091B00080628093B000C093BF
:10053000B400C9CF80919000806880939000D093E0
:100540009900C0939800BFCF809190008062809303
:100550009000D0939B00C0939A00B5CF80919000FB
:10056000886080939000D0939D00C0939C00ABCF97
:100570008091A00080688093A0008091A0008F7B74
:100580008093A000D093A900C093A8009CCF809135
:10059000A00080628093A000D093AB00C093AA001B
:1005A00092CF8091A00088608093A000D093AD008E
:1005B000C093AC0088CF8091200180688093200197
:1005C000D0932901C09328017ECF809120018062C1
:1005D00080932001D0932B01C0932A0174CF809186
:1005E0002001886080932001D0932D01C0932C01BD
:1005F0006ACFC038D1050CF03ECF33CF3FB7F89467
:100600008091170290911802A0911902B0911A02DC
:1006100026B5A89B05C02F3F19F00196A11DB11D5D
:100620003FBFBA2FA92F982F8827BC01CD01620F99
:10063000711D811D911D42E0660F771F881F991F54
:100640004A95D1F708958F929F92AF92BF92CF9221
:10065000DF92EF92FF924B015C010E94FE026B0160
:100660007C010E94FE026C197D098E099F09683E7B
:10067000734081059105A8F321E0821A9108A10831
:10068000B10888EEC80E83E0D81EE11CF11C81146D
:100690009104A104B10429F7FF90EF90DF90CF906F
:1006A000BF90AF909F908F900895AF92BF92CF92DE
:1006B000DF92EF92FF920F931F93CF93DF936C0122
:1006C0007B018B01040F151FEB015E01AE18BF0803
:1006D000C017D10759F06991D601ED91FC910190B5
:1006E000F081E02DC6011995892B79F7C501DF91BD
:1006F000CF911F910F91FF90EF90DF90CF90BF901F
:10070000AF900895FC01538D448D252F30E0842F48
:1007100090E0821B930B541710F0CF960895019729
:100720000895FC01918D828D981761F0A28DAE0F16
:10073000BF2FB11D5D968C91928D9F5F9F73928F9D
:1007400090E008958FEF9FEF0895FC01918D828DC9
:10075000981731F0828DE80FF11D858D90E0089596
:100760008FEF9FEF0895FC01918D228D892F90E0EE
:10077000805C9F4F821B91098F73992708958BE1AD
:1007800092E00E94B30321E0892B09F420E0822F3C
:100790000895FC01A48DA80FB92FB11DA35ABF4F16
:1007A0002C91848D90E001968F739927848FA68970
:1007B000B7892C93A089B1898C91837080648C93C4
:1007C000938D848D981306C00288F389E02D808173
:1007D0008F7D80830895EF92FF920F931F93CF93A5
:1007E000DF93EC0181E0888F9B8D8C8D98131AC06C
:1007F000E889F989808185FF15C09FB7F894EE8953
:10080000FF896083E889F9898081837080648083AF
:100810009FBF81E090E0DF91CF911F910F91FF90FA
:10082000EF900895F62E0B8D10E00F5F1F4F0F73A2
:100830001127E02E8C8D8E110CC00FB607FCFACF5D
:10084000E889F989808185FFF5CFCE010E94C9032F
:10085000F1CFEB8DEC0FFD2FF11DE35AFF4FF0822E
:100860009FB7F8940B8FEA89FB8980818062CFCF94
:10087000CF93DF93EC01888D8823B9F0AA89BB89D7
:10088000E889F9898C9185FD03C0808186FD0DC0C2
:100890000FB607FCF7CF8C9185FFF2CF808185FFE3
:1008A000EDCFCE010E94C903E9CFDF91CF9108952A
:1008B00080E090E0892B29F00E94BF0381110E9403
:1008C000000080E090E0892B49F080E090E0892BE7
:1008D00029F00E94000081110E94000080E090E059
:1008E000892B49F080E090E0892B29F00E940000DC
:1008F00081110E94000080E090E0892B49F080E0A7
:1009000090E0892B29F00E94000081110C940000D6
:1009100008951F920F920FB60F9211242F933F93B9
:100920008F939F93AF93BF93809113029091140282
:10093000A0911502B09116023091120223E0230F0C
:100940002D3758F50196A11DB11D209312028093F9
:10095000130290931402A0931502B0931602809193
:10096000170290911802A0911902B0911A020196F3
:10097000A11DB11D8093170290931802A093190234
:10098000B0931A02BF91AF919F918F913F912F9198
:100990000F900FBE0F901F90189526E8230F029618
:1009A000A11DB11DD2CF1F920F920FB60F9211242D
:1009B0000BB60F922F933F934F935F936F937F9359
:1009C0008F939F93AF93BF93EF93FF938BE192E04D
:1009D0000E94C903FF91EF91BF91AF919F918F91B9
:1009E0007F916F915F914F913F912F910F900BBE2F
:1009F0000F900FBE0F901F9018951F920F920FB679
:100A00000F9211240BB60F922F938F939F93EF9316
:100A1000FF93E0912B02F0912C028081E091310252
:100A2000F091320282FD1DC09081809134028F5F6F
:100A30008F7320913502821741F0E0913402F0E08B
:100A4000E55EFD4F958F80933402FF91EF919F916A
:100A50008F912F910F900BBE0F900FBE0F901F9094
:100A600018958081F2CFEBE1F2E01382128288EEDA
:100A700093E0A0E0B0E084839583A683B78384E00D
:100A800092E09183808385EC90E09587848784EC65
:100A900090E09787868780EC90E0918B808B81EC4B
:100AA00090E0938B828B82EC90E0958B848B86EC2C
:100AB00090E0978B868B118E128E138E148E88E0A9
:100AC0000E947D0189E00E947D0182E00E947D01FB
:100AD0008AE00E947D018BE00E947D0183E00E94FC
:100AE0007D0184E00E947D0185E00E947D0186E019
:100AF0000E947D0187E00E947D01E8EBF2E088E042
:100B000090E09183808389E090E09383828382E008
:100B100090E0958384838AE090E0978386838BE0DE
:100B200090E09187808783E090E09387828784E0DC
:100B300090E09587848785E090E09787868786E0B8
:100B400090E0918B808B87E090E0938B828B08956F
:100B5000789484B5826084BD84B5816084BD85B598
:100B6000826085BD85B5816085BD80916E008160A4
:100B700080936E001092810080918100826080934A
:100B8000810080918100816080938100809180004C
:100B90008160809380008091B10084608093B10077
:100BA0008091B00081608093B0008091910082605C
:100BB0008093910080919100816080939100809159
:100BC00090008160809390008091A100826080936A
:100BD000A1008091A10081608093A1008091A0007C
:100BE00081608093A0008091210182608093210127
:100BF0008091210181608093210180912001816099
:100C00008093200180917A00846080937A008091A3
:100C10007A00826080937A0080917A00816080936C
:100C20007A0080917A00806880937A001092C100E7
:100C3000E0912B02F0912C0282E08083E091270268
:100C4000F09128021082E0912902F0912A028FECA3
:100C5000808310923302E0912F02F091300286E0FF
:100C60008083E0912D02F0912E028081806180834B
:100C7000E0912D02F0912E02808188608083E091C6
:100C80002D02F0912E02808180688083E0912D02F8
:100C9000F0912E0280818F7D808360E08091C6027A
:100CA0000E949C0160E08091CA020E949C01C8ECF5
:100CB000D0E061E08091C4020E949C0161E08091DB
:100CC000C8020E949C0164E670E080E090E00E940F
:100CD000230360E08091C4020E949C0160E0809147
:100CE000C8020E949C0164E670E080E090E00E94EF
:100CF00023032197F1F670E060E08091BC020E942E
:100D0000280261E08091B8020E949C0160E080911D
:100D1000BA020E949C0170E060E08091C2020E94D1
:100D2000280261E08091BE020E949C0160E08091F7
:100D3000C0020E949C0162E370E080E090E00E94AB
:100D400023030E945804F7CFEE0FFF1F881F8BBFAD
:0C0D50000790F691E02D1994F894FFCF65
:100D5C0000000000EB03550382033804B303910336
:020D6C00A503DD
:00000001FF
